{
  "contractName": "TotoroToken",
  "abi": [
    {
      "constant": true,
      "inputs": [],
      "name": "totalSupply",
      "outputs": [
        {
          "name": "",
          "type": "uint256"
        }
      ],
      "payable": false,
      "stateMutability": "view",
      "type": "function"
    },
    {
      "inputs": [],
      "payable": false,
      "stateMutability": "nonpayable",
      "type": "constructor"
    }
  ],
  "bytecode": "0x608060405234801561001057600080fd5b506404a817c800600081905550609e8061002b6000396000f300608060405260043610603f576000357c0100000000000000000000000000000000000000000000000000000000900463ffffffff16806318160ddd146044575b600080fd5b348015604f57600080fd5b506056606c565b6040518082815260200191505060405180910390f35b600054815600a165627a7a723058203773cfc8a2fb40c8d781b48523eaa6b3e3cc772c54d062cf6d39e6816f31b9de0029",
  "source": "pragma solidity ^0.4.2;\n\ncontract TotoroToken {\n   // Contracor\n   // Set the total number of tokens\n   // Read the total number of tokens\n   uint256 public totalSupply;\n\n   function TotoroToken () public {\n     totalSupply = 20000000000;\n   }\n}\n",
  "sourcePath": "/home/totoro/Desktop/totoro_team/totoro_team/contracts/TotoroToken.sol",
  "compiler": {
    "name": "solc",
    "version": "0.4.24+commit.e67f0147.Emscripten.clang"
  },
  "schemaVersion": "2.0.0",
  "updatedAt": "2018-05-31T18:06:05.793Z"
}